:020000040800F2
:10000000F88200206D03000829690008574700089E
:10001000FD680008BD0E0008017A0008000000001D
:10002000000000000000000000000000AD02000819
:10003000911600080000000009030008E96F00089D
:100040008703000887030008870300088703000868
:100050008703000887030008F316000887030008D9
:100060008703000887030008870300088703000848
:100070008703000887030008A1130008870300080E
:100080008703000887030008870300088703000828
:100090008703000887030008870300088703000818
:1000A0008703000887030008870300088703000808
:1000B0008703000887030008870300086D470008CE
:1000C0005D470008870300088703000887030008CE
:1000D000870300088703000887030008E179000808
:1000E00087030008870300088703000887030008C8
:1000F00087030008870300088703000887030008B8
:1001000087030008870300088703000887030008A7
:100110008703000887030008D170000887030008E0
:100120008703000887030008870300088703000887
:10013000870300080000000000000000870300089B
:100140008703000887030008870300088703000867
:10015000870300088703000887030008F179000877
:100160008703000887030008870300088703000847
:1001700087030008870300088703000800000000C9
:1001800000000000870300080000000000000000DD
:10019000870300080000000000000000870300083B
:1001A00000000000000000000000000087030008BD
:1001B00087030008870300088703000887030008F7
:1001C0008703000800F002F800F060F80AA090E849
:1001D000000C82448344AAF10107DA4501D100F002
:1001E00055F8AFF2090EBAE80F0013F0010F18BF6F
:1001F000FB1A43F00103184730F3000050F30000EE
:100200000A444FF0000C10F8013B13F0070408BF3C
:1002100010F8014B1D1108BF10F8015B641E05D0DA
:1002200010F8016B641E01F8016BF9D113F0080F8F
:100230001EBF10F8014BAD1C0C1B09D16D1E58BF21
:1002400001F801CBFAD505E014F8016B01F8016B58
:100250006D1EF9D59142D6D37047000000230024CB
:1002600000250026103A28BF78C1FBD8520728BFC6
:1002700030C148BF0B6070471FB50EF00CFA9DE807
:10028000030000F097FA1FBD10B510BD00F0FEFA94
:100290001146FFF7F1FF0AF03AF800F01CFB03B437
:1002A000FFF7F2FF03BC00F04DFB00002C4B196878
:1002B0000868B0E8F04F80F30988BFF36F8F4FF004
:1002C000000080F3118870470000000008480068B3
:1002D000006880F308884FF0000080F3148862B64D
:1002E00061B6BFF34F8FBFF36F8F00DF00BF00BF5A
:1002F00008ED00E0DFF80C00016841F470010160D6
:10030000704700BF88ED00E0EFF30980BFF36F8F07
:10031000134B1A681EF0100F08BF20ED108A20E959
:10032000F04F106009B44FF0500080F31188BFF314
:100330004F8FBFF36F8F0CF027FC4FF0000080F35E
:10034000118809BC19680868B0E8F04F1EF0100F5A
:1003500008BFB0EC108A80F30988BFF36F8F704735
:1003600090010020EFF305807047000009488047A6
:1003700009480047FEE7FEE7FEE7FEE7FEE7FEE787
:10038000FEE7FEE7FEE7FEE704480549054A064B9F
:1003900070470000BD700008C5010008F87C00200F
:1003A000F8820020F87E0020F87E002070B5064616
:1003B00000F0E4F9056806F10B0020F00704B442F0
:1003C0009CBF002070BD2B466A68BAB11068A0427D
:1003D00010D304F1080188423CBF5068586007D32D
:1003E0005168101941601168091B01605860146060
:1003F000101D70BD13465268002AE7D121462846D9
:1004000000F0C4F90028DED170BD70B50446051FA8
:1004100000F0B4F90068002C14BF446870BD002CD3
:1004200018BFAC423CBF20466468F8D301680A1884
:10043000AA4218BF456003D12A68054611440160ED
:1004400028684119A1421CBF6C6070BD6168696079
:1004500021680844286070BD53EA020C00F06980EE
:100460002DE9F04B4FF00006002B1FBFB3FA83F5C8
:1004700003FA05F424FA05F65E4012BF1643B2FAF9
:1004800082F502FA05F4C5F120051EBF22FA05FC2B
:1004900044EA0C04203556EA044C4FEA144418BFD1
:1004A000641C4FF000084FF00009904271EB030C00
:1004B00039D3002919BFB1FA81F701FA07F6B0FA6A
:1004C00080F700FA07F6C7F120071EBF20FA07FCE5
:1004D00046EA0C062037B6FBF4FCA7EB0507103FF5
:1004E00007F01F0BCBF120060CFA0BFB2CFA06F6DB
:1004F00044BFB3460026202FA4BF5E464FF0000B3A
:100500005BEA060C08BF4FF0010B19EB0B09ABFBC4
:10051000027C48EB0608C01B06FB02CC0BFB03CC9D
:1005200071EB0C01C1E70B46024641464846BDE867
:10053000F08B13B54FF000004FF00001AFF30080D7
:10054000BDE81C40704710B54C1084EA530404D534
:100550004042C1F1000138BF491E1B4204D552423E
:10056000C3F1000338BF5B1EFFF776FF14F0804F26
:1005700004D04042C1F1000138BF491E14F0004FC1
:1005800004D05242C3F1000338BF5B1E10BD40EAE5
:10059000010310B59B070FD1042A0DD310C808C959
:1005A000121F9C42F8D020BA19BA884201D9012002
:1005B00010BD4FF0FF3010BD1AB1D30703D0521C4D
:1005C00007E0002010BD10F8013B11F8014B1B1B88
:1005D00007D110F8013B11F8014B1B1B01D1921EF2
:1005E000F1D1184610BD032A40F2308010F0030C00
:1005F00000F0158011F8013BBCF1020F624498BF76
:1006000011F801CB00F8013B38BF11F8013BA2F112
:10061000040298BF00F801CB38BF00F8013B11F08D
:10062000030300F02580083AC0F0088051F8043B2D
:10063000083A51F804CBA0E80810F5E7121D5CBF9A
:1006400051F8043B40F8043BAFF30080D20724BFCD
:1006500011F8013B11F801CB48BF11F8012B24BF61
:1006600000F8013B00F801CB48BF00F8012B7047B0
:1006700010B5203AC0F00B80B1E81850203AA0E83D
:100680001850B1E81850A0E81850BFF4F5AF5FEA71
:10069000027C24BFB1E81850A0E8185044BF18C924
:1006A00018C0BDE810405FEA827C24BF51F8043BCB
:1006B00040F8043B08BF7047D20728BF31F8023B1F
:1006C00048BF11F8012B28BF20F8023B48BF00F8B3
:1006D000012B704702F0FF0343EA032242EA024281
:1006E00000F002B84FF000020429C0F0128010F0B0
:1006F000030C00F01B80CCF1040CBCF1020F18BFFE
:1007000000F8012BA8BF20F8022BA1EB0C0100F090
:100710000DB85FEAC17C24BF00F8012B00F8012B63
:1007200048BF00F8012B70474FF0000200B5134698
:1007300094469646203922BFA0E80C50A0E80C5001
:10074000B1F12001BFF4F7AF090728BFA0E80C50B2
:1007500048BF0CC05DF804EB890028BF40F8042BAB
:1007600008BF704748BF20F8022B11F0804F18BF18
:1007700000F8012B7047704770477047004870477A
:100780009C7C0020704770477047704738B504461E
:100790000A4600206946AFF30080002808BF38BD34
:1007A00002460099204600F04FF8012038BD012094
:1007B00000F064B8F8B5AFF30080054600200C46A1
:1007C000102000BF0646A819A0420DD9324669463E
:1007D0000020AFF30080070008BF00F04FF800983A
:1007E000A04218BF0546C419FFF7C8FF05600746B9
:1007F000F01D20F007004619284600F00AF8B44220
:1008000008BFF8BDA21B31463868BDE8F84000F0CB
:100810001BB800210160C0E901107047102070472B
:1008200010B500F00DF8006810BD10B5044600F0DA
:1008300007F8046010BD000000487047947C002059
:1008400000487047947C0020034640688C4600288E
:1008500018BF88423CBF03464068F8D31868184464
:10086000884207D00CF1030020F00700001D411A58
:10087000521A0146081D0A60FFF7C7BD10B500F007
:1008800039F8BDE8104000F02FB870477546FFF703
:10089000D3FFAE4605006946534620F00700854663
:1008A00018B020B5FFF770FDBDE820404FF00006FE
:1008B0004FF000074FF000084FF0000B21F0070148
:1008C000AC46ACE8C009ACE8C009ACE8C009ACE88B
:1008D000C0098D46704710B50446AFF3008020462E
:1008E000BDE81040FFF7DBBC002801D000F02AB8BB
:1008F0007047000010B5012805D0002103A000F0CA
:1009000027F8012010BD09A1F8E70000534947521C
:10091000544D454D3A204F7574206F6620686561CF
:1009200070206D656D6F7279000000003A20486597
:100930006170206D656D6F727920636F7272757072
:100940007465640001491820ABBEFEE72600020072
:1009500070B505460C460A2000E06D1C00F011F849
:1009600035B128780028F8D102E0641C00F009F8BD
:1009700014B120780028F8D1BDE870400A20AFF308
:10098000008008B569468DF800000320ABBE08BDA5
:1009900055494A6822F440324A604A6843681A431B
:1009A0004A600268526822F4807203685A600268E2
:1009B0005368026943EA022203685A600268526877
:1009C00022F0407203685A600268526883681A43D2
:1009D00003685A600268926822F4006203689A60B1
:1009E00002689268C3681A4303689A603F4B826A40
:1009F0009A4218D00268926822F0706203689A6086
:100A000002689268836A1A4303689A60026892686F
:100A100022F0405203689A6002689268C36A1A43DF
:100A200003689A600BE00268926822F070620368C3
:100A30009A600268926822F0405203689A600268E5
:100A4000926822F0020203689A6002689368027E4C
:100A500043EA420203689A602022125CA2B1026853
:100A6000526842F4006203685A600268526822F4D5
:100A7000604203685A6002685368426A521E43EA41
:100A8000423203685A6005E00268526822F400624C
:100A900003685A600268D26A22F470020368DA625C
:100AA0000268D36A828B521E43EA02520368DA62FA
:100AB0000268926822F4007203689A600268936880
:100AC00090F8302043EA422203689A6002689268F4
:100AD00022F4806203689A6002689368426943EA7C
:100AE000822203689A607047002301400100000FD2
:100AF00010B50848C06820B10649C8681421FFF73E
:100B0000F1FD0020034908704880087208740875D8
:100B1000488210BD6C1D002010B518210E48FFF74B
:100B200003FE00200C49087048800872087408759C
:100B300048821420FFF73AFC0749C8600846C0689D
:100B400010B94FF0FF3010BD0349C8681421FFF7FA
:100B5000C9FD0020F7E700006C1D002007B59DEDE2
:100B6000021AB8EEC11AF0EE410A9DED011AB8EE74
:100B7000C11AB0EE410ABDF8000000F03FFA0EBD08
:100B800086B00D4BD3E900219B68CDE90413039295
:100B90009DF80C109DF80D2041EA0221ADF80010DF
:100BA000DDF80E100191DDF8121002919DE80E00A3
:100BB00080E80E0006B07047841D002010B5552057
:100BC0001A494871AA2119488171194801881748A2
:100BD000A0F80B101648017C1448417300F098FCF3
:100BE0001249C1F8070013484069C1F816001248BD
:100BF00041680E48C0F80E10104841680B48C0F814
:100C0000121040F6BA320E491A30FFF7ECFC0748D2
:100C1000408BC0F5167000EB800040F6CF31081A0B
:100C20000249488000200880087110BD981D0020EE
:100C30001002002060050020C02C00204030002061
:100C4000B211002010B520480078002839D01F4884
:100C50000079002835D11C4908701C48008800F52F
:100C600080701A494988884213DA18480288401D62
:100C700011184FF48072164803F010FD38B913486C
:100C8000008800F5807011490880002010BD012007
:100C9000FCE70E4840880D4B1B88C01A82B20B48F7
:100CA0000388401D19180A4803F0F8FC38B90748B2
:100CB000408806490880012008710020E6E70120ED
:100CC000E4E70120E2E7000002000020981D002078
:100CD000600400202DED048B84B00124FFF71CFF7D
:100CE00001222D492D4803F03BFC00BF00F038FCE9
:100CF000B0EE409AF0EE609A294890ED000B53EC6C
:100D0000102B51EC190B0DF06BFB41EC180B9FED08
:100D1000250B53EC102B0DF055FA1DD2234800780B
:100D200010B12348007930B92CB922480088401C02
:100D30002049088006E020480088401C1E490880A1
:100D4000FFF73CFF1CB1012018490870002400F097
:100D500007FC134880ED000B1448007830B11448AC
:100D6000007918B9FFF76EFF14490870144800782D
:100D700068B100201249087001A8FFF701FF11486F
:100D800001A90EC90EC00C3807C8FFF7E7FE012005
:100D90000AF022FDAAE70000010000206004002004
:100DA0005000002000000000000069400200002008
:100DB000981D0020580000205A0000204800002004
:100DC000AD0000208802002010B5044638480078A5
:100DD000052868D2DFE800F003111F364900AA2C6D
:100DE00008D101203249087008460471007A401C7D
:100DF000087201E0FFF77CFE58E0552C08D1022074
:100E00002B49087008464471007A401C087201E0C2
:100E1000FFF76EFE4AE02648017A001D4454001F89
:100E2000007A401C224908720846007A042808D13A
:100E300008468179C07941EA00201D494880032095
:100E4000087033E01A48C0681949097C44541848AE
:100E5000007C401C164908740846007C498888427A
:100E600002D104201249087020E01148408A10493C
:100E7000097DC90004FA01F108430D49488208467A
:100E8000007D401C08750846007D02280AD10846EE
:100E90004288C1680748FFF7A6FB01200649087091
:100EA000FFF726FE02E0FFF723FE00BF00BF10BDE4
:100EB0006C1D0020841D0020AD00002000BFFEE757
:100EC00010B5044624B1012C1BD0022C18D163E0CC
:100ED0009FED420A424880ED030A09F043FC9FED72
:100EE0003F0A404880ED030A09F03CFC09F028FC69
:100EF00000F036FB3C4880ED020B00203A490874B4
:100F000069E0374841683848816336484168364867
:100F1000C16300F025FB344880ED060B90ED060B15
:100F200080ED080B314890ED050A2F4880ED0B0A43
:100F300090ED0B0AD0ED0C0A30EE200A80ED0D0A80
:100F400008E0294890ED0D0ADFED290A30EE600A2D
:100F500080ED0D0A244890ED0D0ADFED260AB4EE6F
:100F6000E00AF1EE10FAECDC08E01F4890ED0D0A03
:100F7000DFED1F0A30EE200A80ED0D0A1A4890EDD1
:100F80000D0ADFED1D0AB4EEE00AF1EE10FAECD323
:100F90000120154908741EE0114841681248416556
:100FA0001048416810488165416D806E01440E48CB
:100FB000C165816D806E01440B48016600F0D0FA76
:100FC000094880ED100B90ED100B80ED120B022004
:100FD0000549087400BF00BF10BD000000000000FC
:100FE000C02C0020403000201002002060050020AE
:100FF0000000B44300003443000034C310B52DEDAD
:10100000028B0446F0EE408AB0EE608A0C48007C09
:1010100018B10120BDEC028B10BD094804800020EE
:10102000074981F87000B0EE680A00F0B3F9B0EE3D
:10103000480A00F091F90120FFF742FF0020E9E79C
:101040001002002010B52DED048B9848007C20B1D3
:10105000012818D002287CD17FE09FED950A9548A1
:1010600080ED030A09F07EFB9FED910A924880ED26
:10107000030A09F077FB09F063FB00F071FA8B4873
:1010800080ED020B0DE1894890ED0D0A8B48D0ED03
:10109000050A30EE600AB0EEC00A8448D0ED0A0AB4
:1010A000B4EEE00AF1EE10FA13DC824890ED040A87
:1010B000DFED830AB4EEE00AF1EE10FA09DC7E48B7
:1010C00090ED040ADFED7E0AB4EEE00AF1EE10FACC
:1010D00005DD00F045FA754880ED080B24E000F0CE
:1010E0003FFAB0EE409AF0EE609A704890ED081B1F
:1010F000B0EE410AF0EE610A53EC102B51EC190BE3
:101100000DF06EF941EC180B9FED6E0B53EC102BAC
:101110000DF058F808D200F023FA644880ED080B6F
:101120000220FFF7CDFEBCE06048D0ED0D0AB0EE26
:10113000600A09F00FF95D4AD16BBFEE000A906BAF
:1011400009F020FB5B4809F00DFB5B4809F00AFB46
:1011500000E094E009F0F4FAA3E0544AD26D554B54
:101160005B68D11A002901DB0A4600E04A4200EE22
:10117000102AB8EEC00A4D4AD2ED140AB4EEE00AC5
:10118000F1EE10FA28DC126E4B4B5B68D01A002887
:1011900001DB024600E0424200EE102AB8EEC00A2F
:1011A000424AD2ED140AB4EEE00AF1EE10FA13DC72
:1011B000404A92ED040ADFED420AB4EEE00AF1EE95
:1011C00010FA09DC3C4A92ED040ADFED3D0AB4EE68
:1011D000E00AF1EE10FA05DD00F0C2F9334880EDC7
:1011E000120B28E000F0BCF9B0EE409AF0EE609AE5
:1011F0002E4890ED121BB0EE410AF0EE610A53EC5E
:10120000102B51EC190B0DF0EBF841EC180B9FED86
:101210002D0B53EC102B0CF0D5FF0CD200F0A0F9E5
:10122000224880ED120B0120204981F87000002037
:10123000FFF746FE35E01D48D0ED170AF8EEE00A4C
:10124000B0EE600A1B4809F065FA1848D0ED180A9C
:10125000F8EEE00AB0EE600A174809F05BFA134AAC
:10126000916DB7EE000A506D09F08CFA114809F043
:1012700079FA114809F076FA09F062FA11E00020D3
:10128000FFF71EFE9FED0A0A0A4880ED030A09F0E7
:1012900069FA9FED070A084880ED030A09F062FA2F
:1012A00000BF00BFBDEC048B10BD00001002002089
:1012B00000000000C02C002040300020600500200D
:1012C0006F12833A000000000000694010B500F082
:1012D00047F91D4880ED020B00201B490874088067
:1012E00081F870009FED190A084680ED0B0A9FED0A
:1012F000170A80ED0D0A9FED150A80ED0C0AB7EE76
:10130000000A80ED0A0A9FED120B80ED080B9FED9D
:10131000100B80ED060B00218163C16381669FED98
:101320000B0A80ED190AB3EE040A80ED140A9FED52
:10133000080B80ED120B9FED060B80ED100B416545
:101340008165C165016610BD10020020000000002B
:1013500000000000000000000A4880ED190AD0EDEE
:10136000190A9FED091A60EE810A9FED081A60EED6
:10137000810A9FED071AC0EE811AFDEEE10AC0ED69
:101380001A0A70471002002000D0364500007A4447
:10139000D9A0D543014880ED0C0A70471002002007
:1013A00010B5024800F0EAFB10BD0000F004002078
:1013B0000146087810381823B0FBF3F20848805C27
:1013C000C865032A05D908686FF30900001D886500
:1013D00003E008686FF309008865886D70470000B6
:1013E00060E70008014600208A6A8B69CBB932B1F8
:1013F000012A0DD0022A03D0032A10D10EE000BF2B
:10140000CB6A03F08073B3F1807F00D1012007E045
:10141000CB6AB3F1C07F00D1012001E000E000BF42
:1014200034E08B69B3F5005F1AD132B1012A07D0DD
:10143000022A03D0032A11D10AE000BF01200EE0E6
:10144000CB6A03F08073B3F1807F00D1012006E006
:10145000CB6AB3F1C07F00D1012000E000BF15E0EE
:1014600032B1012A05D0022A04D0032A0CD103E0AC
:1014700000BF00BF012008E0CB6A03F08073B3F126
:10148000807F00D1012000E000BF00BF704730B571
:101490000468246824F4802405682C600468636070
:1014A0008468402C04D10468A2600468E16003E011
:1014B0000468A1600468E26030BD00002DE9F047D7
:1014C00082460F48D0F804900E4804680E48006821
:1014D000814500D2641C002111EB090544EB010693
:1014E0000A4800684FF47A71B0FBF1F700233A46DE
:1014F00028463146FEF7B0FFCAF80000BDE8F08785
:10150000001000E0880100208C0100206C00002009
:101510002DE9F0470E48D0F804900E4804680E48B4
:101520000068814500D2641C002111EB090544EBE1
:1015300001060A4800684FF47A71B0FBF1F7002306
:101540003A4628463146FEF787FFBDE8F08700009F
:10155000001000E0880100208C0100206C000020B9
:101560002DE9F0412DED068B1348456813480468BA
:1015700013480068854200D2641C00214E1944EBD8
:101580000107104800680CF089FC9FED0F0B53EC2D
:10159000102B0CF0EFFA41EC180B304639460CF0EA
:1015A00091FC53EC182B0CF0E5FA41EC100BBDEC60
:1015B000068BBDE8F0810000001000E088010020EB
:1015C0008C0100206C0000200000000000408F40D3
:1015D0002DE9F0412DED068B13484568134804684A
:1015E00013480068854200D2641C00214E1944EB68
:1015F0000107104800680CF051FC9FED0F0B53ECF5
:10160000102B0CF0B7FA41EC180B304639460CF0B1
:1016100059FC53EC182B0CF0ADFA41EC100BBDEC5F
:10162000068BBDE8F0810000001000E0880100207A
:101630008C0100206C0000200000000080842E41FE
:101640000F48006800F0807028B90D48006840F02D
:1016500080700B49086000200A494860084600680D
:1016600040F0010008600020074908600749086051
:101670000448406808B1012070470020FCE70000E2
:10168000FCED00E0001000E0880100208C0100204B
:10169000704710B504464FF47A7104FB01F000F076
:1016A00001F810BD10B52DED088B0446FFF790FF33
:1016B000B0EE408AF0EE608A00E000BF20460CF0F9
:1016C000EDFB41EC190BFFF783FFB0EE40BAF0EEF3
:1016D00060BA53EC182B51EC1B0B0CF081FE41EC63
:1016E0001A0B53EC192B0CF033FCE6D3BDEC088B32
:1016F00010BD10B5012000F029FC10BD72B600BF6E
:10170000FEE7000008F0A0FEDFED0C0A9FED0B0ADB
:101710000AF02AFF08F0C8FEFFF7D8FD00BF08480E
:1017200000780A2806D100200549087009F06AF8F7
:10173000FFF788FC01200AF04FF8F0E700000000F6
:101740000300002070B52DED028B04460D46B0EE6F
:10175000408AF0EE608AB5EEC08AF1EE10FA15DD2F
:10176000F5EEC08AF1EE10FA10DDF0EE680AB0EE88
:10177000480A294604F1080004F0DCF9064616B9C7
:101780000120207001E00020207001E00020207086
:10179000002084F86C019FED030A84ED5A0ABDEC29
:1017A000028B70BD0000000010B52DED068B0446C5
:1017B000F0EE408AB0EE609AF0EE419AB0EE61AA87
:1017C000207850B179EE680AB0EE600A04F10800A2
:1017D00004F05CFAB0EE408A01E039EE688ADFED91
:1017E0000CAA94F86C0118B9012084F86C0107E088
:1017F00094ED5A0A38EE400AC0EE0A0AF0EE60AAEA
:1018000084ED5A8A29EEAA0ABDEC068B10BD0000B1
:101810000000000038B502460020009000BF92F89A
:101820003C00012801D1022038BD012082F83C0093
:1018300000BF0868092816D91068C0680C780A3CEF
:1018400004EB44050724AC40A0431468E0600C7826
:101850000A3C04EB44048868A0401468E468204310
:101860001468E06013E0106800690C7804EB44052C
:101870000724AC40A043146820610C7804EB4404B6
:101880008868A0401468246920431468206148686F
:10189000072817D21068406B0C79641E04EB84058E
:1018A0001F24AC40A04314686063088880B20C79A0
:1018B000641E04EB8404A0401468646B2043146825
:1018C000606331E048680D2817D21068006B0C790E
:1018D000E41F04EB84051F24AC40A043146820637C
:1018E000088880B20C79E41F04EB8404A0401468DB
:1018F000246B20431468206316E01068C06A0C79DA
:101900000D3C04EB84051F24AC40A0431468E06246
:10191000088880B20C790D3C04EB8404A040146864
:10192000E46A20431468E0621E4B1F4C1068A0421A
:101930000AD10868122807D1586820F400005860BE
:10194000586840F480005860174C1068A04222D1BB
:10195000164C0868A04202D0086811281BD15868AC
:1019600020F480005860586840F4000058600F4C24
:101970000868A0420FD10E4800680E4CB0FBF4F08E
:1019800000EB80004000009002E00098401E0090B4
:1019900000980028F9D100BF002082F83C0000BF69
:1019A00000BF41E700230140002001401200001069
:1019B0006C00002040420F0070B5044600250CB9B1
:1019C000012070BD1549A06A884200D000BF206C7C
:1019D00030B9204600F024F80020606484F83C0010
:1019E000206C00F0100088B9206C20F4885040F082
:1019F000020020642046FEF7CBFF00206064206CCC
:101A000020F0020040F00100206400E0012500BF4A
:101A1000002084F83C0000BF2846D2E70100000FF8
:101A200010B586B00446142101A8FEF77DFE1949C1
:101A3000206888422BD100BF002000901648006823
:101A400040F48070144908600846006800F4807013
:101A5000009000BF00BF00BF002000900E48143867
:101A6000006840F001000C4914390860084600681D
:101A700000F00100009000BF00BF0420019003208F
:101A800002900020039001A9044800F06DFA06B00E
:101A900010BD000000200140443802400000024018
:101AA00070B50446A56D00F051FB064694F835006C
:101AB000022808D08020606500BF002084F8340030
:101AC00000BF012070BD2068006820F0160021686A
:101AD00008602068406920F0800021684861206C1F
:101AE00008B9A06C28B12068006820F008002168BF
:101AF00008602068006820F001002168086010E09C
:101B000000F024FB801B05280BD9202060650320F2
:101B100084F8350000BF002084F8340000BF0320A3
:101B2000D0E72068006800F001000028E8D194F8B0
:101B30005C103F208840A860012084F8350000BF79
:101B4000002084F8340000BF00BFBBE7014691F8D5
:101B50003500022803D08020486501207047052009
:101B600081F835000868006820F001000A681060FC
:101B70000020F3E7014691F835007047F8B50446B8
:101B8000002000908C4800684FF41651B0FBF1F72C
:101B9000A56D2E6894F85C1008208840304098B1FC
:101BA0002068006800F0040070B12068006820F030
:101BB00004002168086094F85C1008208840A86040
:101BC000606D40F00100606594F85C100120884071
:101BD000304068B12068406900F0800040B194F85E
:101BE0005C1001208840A860606D40F002006065D4
:101BF00094F85C1004208840304068B12068006888
:101C000000F0020040B194F85C1004208840A86005
:101C1000606D40F00400606594F85C10102088400E
:101C2000304078B32068006800F0080050B394F8A2
:101C30005C1010208840A8602068006800F48020B4
:101C400080B12068006800F4002028B9206CC8B179
:101C50002046216C884715E0A06C98B12046A16C05
:101C600088470FE02068006800F4807028B9206879
:101C7000006820F0080021680860206C10B1204640
:101C8000216C884794F85C10202088403040002860
:101C900065D02068006800F0100000285FD094F83C
:101CA0005C1020208840A86094F83500052828D1D1
:101CB0002068006820F016002168086020684069EC
:101CC00020F0800021684861206C08B9A06C28B120
:101CD0002068006820F008002168086094F85C1013
:101CE0003F208840A860012084F8350000BF002014
:101CF00084F8340000BF206D10B12046216D884764
:101D0000F8BD2068006800F4802080B12068006879
:101D100000F4002028B9606C10B12046616C88473F
:101D20001DE0E06BD8B12046E16B884717E02068E2
:101D3000006800F4807068B92068006820F0100026
:101D400021680860012084F8350000BF002084F875
:101D5000340000BFE06B10B12046E16B8847606D36
:101D600038B3606D00F00100F0B1052084F8350053
:101D70002068006820F001002168086000BF00981A
:101D8000401C0090B84200D905E02068006800F0CF
:101D900001000028F3D100BF012084F8350000BF06
:101DA000002084F8340000BFE06C10B12046E16CE4
:101DB000884700BFA4E700006C0000202DE9F04137
:101DC0000446002500F0C2F9074614B90120BDE819
:101DD000F081606A00B100BF022084F8350000BFC6
:101DE000002084F8340000BF2068006820F0010063
:101DF000216808600AE000F0A9F9C01B052805D990
:101E000020206065032084F83500E0E72068006842
:101E100000F001000028EED1206805682148054047
:101E2000D4E901010843E168084321690843616975
:101E30000843A1690843E1690843216A084305434F
:101E4000606A042803D1D4E90B01084305432068E4
:101E500005602068456925F00705606A0543606AEA
:101E600004280DD1A06A0543E06A48B12046FFF777
:101E7000B9FA28B140206065012084F83500A6E752
:101E8000206845612046FFF793FA064694F85C10F7
:101E90003F208840B06000206065012084F8350054
:101EA000002094E73F8010F02DE9F04704460D46EE
:101EB00016461F464FF00008D4F8589000BF94F81B
:101EC0003400012802D10220BDE8F087012084F807
:101ED000340000BF94F83500012825D1022084F891
:101EE0003500002060653B46324629462046FFF714
:101EF000CEFA94F85C103F208840C9F808002068AA
:101F0000006840F0160021680860206C28B1206845
:101F1000006840F00800216808602068006840F010
:101F200001002168086006E000BF002084F834004A
:101F300000BF4FF002084046C6E70000012802D16A
:101F40000121014A117070479C00002010B5044621
:101F500004480068204020B1024804602046FFF792
:101F6000EDFF10BD143C0140F8B502460B460025BC
:101F7000002400200021D1E0012606FA01F51E68A8
:101F800006EA0504AC4274D11E7906F00306012E60
:101F900004D01E7906F00306022E13D190684F007C
:101FA0000326BE40B0434F00DE68BE403043906021
:101FB000506801268E40B0431E79C6F300168E404D
:101FC000304350601E7906F00306032E09D0D06816
:101FD0004F000326BE40B0434F009E68BE403043D2
:101FE000D0601E7906F00306022E13D1CF0802F14D
:101FF000200656F827004E07F70E0F26BE40B043C6
:102000004F07FF0E1E69BE403043CF0802F1200685
:1020100046F8270010684F000326BE40B0431E79E3
:1020200006F003064F00BE40304310605E6806F4C1
:102030004036002E71D000BF00260096394E36681B
:1020400046F48046374F3E603E46366806F480468A
:10205000009600BF00BF344E8F0856F827008E0749
:10206000370F0F26BE40B043304EB24202D1002699
:102070001FE052E02E4EB24201D1012619E02D4E52
:10208000B24201D1022614E02B4EB24201D1032606
:102090000FE02A4EB24201D104260AE0284EB24295
:1020A00001D1052605E0274EB24201D1062600E007
:1020B00007268F073F0FBE4030431B4E8F0846F860
:1020C0002700214E3068A0435E6806F4801606B1F2
:1020D00020431D4E3060361D3068A0435E6806F414
:1020E000001606B12043184E361D3060164E361FBE
:1020F0003068A0435E6806F4003606B12043124EF5
:10210000361F3060361F3068A0435E6806F48036A4
:1021100006B120430C4E083E3060491C1029FFF4E4
:102120002BAFF8BD4438024008380140000002409F
:102130000004024000080240000C0240001002406F
:102140000014024000180240083C014001480068A9
:102150007047000060000020704770472DE9F84F7D
:102160000446206847692068D0F80480002594F868
:102170003E90C7F3002040B1C8F3002028B145F0DD
:1021800001056FF4807021684861C7F3402040B1B9
:10219000C8F3002028B145F002056FF400702168F3
:1021A0004861C7F3802070B3C8F3002058B3CA4613
:1021B000B4F82AB094F83D60206B0090BAF1200F7B
:1021C0000FD1BBF1000F0CD1212E06D0292E04D047
:1021D000282E06D10098212803D1204603F0E0F9EB
:1021E00011E06FF480602168486145F00405B9F1A1
:1021F000100F02D0B9F1400F05D12068006840F4FB
:10220000007021680860C7F3C02040B1C8F3002007
:1022100028B145F008056FF40060216848612DB1D0
:10222000206C28432064204602F03CFBBDE8F88F78
:102230002DE9F04705464FF0000928684668D5F8B3
:102240002CA095F83E7095F83D80102F01D0402FBE
:1022500075D12868D0F818902868446904F0010006
:1022600060B9BAF52A0F02D0BAF12A4F01D1012084
:1022700000E00020012801D1BDE8F08704F0010052
:1022800048B1C6F3402030B1284602F077FA28461C
:1022900002F01CFFB7E0C4F3C00030B1C6F3402029
:1022A00018B1284602F0C9FDADE0C4F3400030B1DA
:1022B000C6F3402018B1284602F0D4FDA3E0C9F3CC
:1022C000800040B32868406800F40060B0F5006FFB
:1022D000E0D0C4F3C01048B1C6F3802030B1C4F3DD
:1022E000800018B9284602F03CFD8CE0C4F3800061
:1022F0000028CFD0C6F340200028CBD0B8F1210F62
:1023000003D1284602F0DDFC7DE0402F7BD128463A
:1023100002F02BFF77E02868406800F40060B0F519
:10232000006F70D0C4F3801050B1C6F3802038B174
:10233000C4F3800020B9284602F041FC63E00BE0C2
:10234000C4F3800000285ED0C6F3402000285AD095
:10235000284602F09CFB56E0286C10B128684469BE
:1023600004E02868D0F8189028684469C4F3400055
:1023700060B1C6F3402048B1286C10B12868D0F88D
:1023800018904946284603F0D3F83CE0C4F3001007
:1023900030B1C6F3402018B1284603F055F932E0B9
:1023A000B8F1210F02D0B8F1290F16D1C4F3C01033
:1023B00048B1C6F3802030B1C4F3800018B9284674
:1023C00003F093F81FE0C4F38000E0B1C6F34020AF
:1023D000C8B1284603F07CF815E0C4F3801048B17A
:1023E000C6F3802030B1C4F3800018B9284603F04A
:1023F0004CF808E0C4F3800028B1C6F3402010B1C7
:10240000284603F035F800BF36E70000034A0168AC
:10241000914202D10121024A1170704700540040DC
:102420005E00002070B504460CB9012070BD94F820
:102430003D0028B9002084F83C00204600F02CFB29
:10244000242084F83D002068006820F00100216805
:1024500008602068006840F4004021680860206837
:10246000006820F400402168086000F059FD05462E
:102470005C496068884206D85B48854201D20120E9
:1024800007E0002005E05948854201D2012000E024
:102490000020012800D1C9E75548B5FBF0F62068B7
:1024A000406820F03F003043216848604D49606833
:1024B000884201D8701C07E04FF4967070434FF4C7
:1024C0007A71B0FBF1F0401C2168096A21F03F01EC
:1024D00008432168086243496068884214D8681E2E
:1024E00061684900B0FBF1F0401CC0F30B00042808
:1024F00001D204203DE0681E61684900B0FBF1F0A4
:10250000401CC0F30B0034E0A06838B9681E616855
:1025100001EB4101B0FBF1F0401C0AE0681E61686C
:1025200001EBC10202EB0111B0FBF1F0401C40F4E1
:102530008040C0F30B0008B901201AE0A06848B938
:10254000681E616801EB4101B0FBF1F0401CC0F373
:102550000B000CE0681E616801EBC10202EB011187
:10256000B0FBF1F0401CC0F30B0040F4804040F49D
:1025700000402168C9694CF6FF7291430843216805
:10258000C861D4E9070108432168096821F0C00146
:10259000084321680860D4E903100843216889686A
:1025A00048F2FF329143084321688860D4E905016D
:1025B00008432168C96821F0FF0108432168C86009
:1025C0002068006840F00100216808600020206455
:1025D000202084F83D000020206384F83E0000BFE6
:1025E00024E70000A086010080841E0000093D0051
:1025F00040420F007047704770470000034A01686F
:10260000914202D10121024A1170704700540040EA
:102610005D000020034A0168914202D10121024A73
:1026200011707047005400405C0000202DE9FC5FF1
:1026300004460F4690469946DDE90CAB0E9EFFF727
:1026400085FD054694F83D00202870D1192301220C
:10265000B5492046009503F0F0F810B10220BDE81E
:10266000FC9F00BF94F83C00012801D10220F6E74E
:10267000012084F83C0000BF2068006800F00100E1
:1026800028B92068006840F00100216808602068CF
:10269000006820F4006021680860222084F83D0072
:1026A000402084F83E0000202064C4F824A0A4F850
:1026B0002AB0608D20859D48E0624B4642463946EF
:1026C0002046CDE9006502F0B3FD08B10120C6E760
:1026D000208D88B900BF00200190206840690190DA
:1026E00020688069019000BF00BF2068006840F446
:1026F00000702168086040E0208D012818D1206812
:10270000006820F480602168086000BF002001900C
:1027100020684069019020688069019000BF00BF77
:102720002068006840F400702168086025E0F8E047
:10273000208D022816D12068006820F4806021686E
:1027400008602068006840F400602168086000BFED
:102750000020019020684069019020688069019004
:1027600000BF0AE000BF002001902068406901908E
:1027700020688069019000BF00BFC3E0208D03285E
:102780007ED8208D012815D12A463146204603F0F7
:1027900030F908B1012062E720680069616A0870B9
:1027A000606A401C6062208D401E2085608D401E46
:1027B0006085A7E0208D02282AD1334600225C499B
:1027C0002046009503F039F808B1012047E720685A
:1027D000006840F400702168086020680069616A40
:1027E0000870606A401C6062208D401E2085608DEC
:1027F000401E608520680069616A0870606A401C3C
:102800006062208D401E2085608D401E608579E0CD
:102810003346002246492046009503F00EF808B1E1
:1028200001201CE72068006820F4806021680860AF
:1028300020680069616A0870606A401C6062208DCF
:10284000401E2085608D401E608533460022384939
:102850002046009502F0F1FF08B10120FFE6206854
:10286000006840F400702168086020680069616AAF
:102870000870606A401C6062208D401E208500E068
:1028800010E0608D401E608520680069616A0870F4
:10289000606A401C6062208D401E2085608D401E55
:1028A00060852FE02A463146204603F0A2F808B1A1
:1028B0000120D4E620680069616A0870606A401CE3
:1028C0006062208D401E2085608D401E60852068DE
:1028D0004069C0F38000A8B1208D032805D120688D
:1028E000006820F480602168086020680069616ADF
:1028F0000870606A401C6062208D401E2085608DDB
:10290000401E6085208D00287FF438AF202084F899
:102910003D00002084F83E0000BF84F83C0000BF6A
:102920009DE602209BE60000020010000000FFFF71
:10293000040001002DE9FC5F04460F4690469946CD
:10294000DDE90CAB0E9EFFF701FC054694F83D0057
:1029500020287DD1192301224D492046009502F0FF
:102960006CFF10B10220BDE8FC9F00BF94F83C0052
:10297000012801D10220F6E7012084F83C0000BFC5
:102980002068006800F0010028B92068006840F065
:102990000100216808602068006820F40060216858
:1029A0000860212084F83D00402084F83E0000208B
:1029B0002064C4F824A0A4F82AB0608D208535488E
:1029C000E0624B46424639462046CDE9006502F0BA
:1029D000DFFC08B10120C6E731E02A463146204637
:1029E00003F074F850B1206C042805D12068006809
:1029F00040F40070216808600120B4E7606A007844
:102A000021680861606A401C6062208D401E20853C
:102A1000608D401E608520684069C0F3800070B101
:102A2000208D60B1606A007821680861606A401C8E
:102A30006062208D401E2085608D401E6085208D47
:102A40000028CAD12A463146204602F0C3FE00E0E3
:102A50001CE050B1206C042805D12068006840F4C7
:102A600000702168086001207DE72068006840F45C
:102A7000007021680860202084F83D00002084F860
:102A80003E0000BF84F83C0000BF6CE702206AE70C
:102A9000020010000000FFFF10B586B004461421AC
:102AA00001A8FDF741FE23492068884240D100BFBC
:102AB000002000902048006840F002001E49086095
:102AC0000846006800F00200009000BF00BF4FF40D
:102AD0004070019012200290002003900320049087
:102AE0000420059001A91548FFF73EFA00BF002019
:102AF000009011481030006840F400100E49103169
:102B000008600846006800F40010009000BF00BF95
:102B1000002205211F2000F0A3F81F2000F08CF8F0
:102B200000220521202000F09BF8202000F084F8EE
:102B300006B010BD0054004030380240000402408E
:102B40007047704703480068034909780844014901
:102B500008607047600000206800002010B50D4834
:102B6000006840F400700B4908600846006840F4B3
:102B7000806008600846006840F4807008600320A8
:102B800000F0ACF80F2000F007F800F02BF8002060
:102B900010BD0000003C024070B504460E480078AD
:102BA0004FF47A71B1FBF0F00C490968B1FBF0F514
:102BB000284600F0D5FC08B1012070BD102C07D2CA
:102BC00000222146501E00F04BF80548046001E049
:102BD0000120F2E70020F0E7680000206C000020F0
:102BE0006400002008B500BF002000901148006874
:102BF00040F480400F4908600846006800F48040B7
:102C0000009000BF00BF00BF00200090081F0068B8
:102C100040F08050091F08600846006800F08050AE
:102C2000009000BF00BF00220F21901E00F018F896
:102C300008BD0000443802400146084600280DDB6C
:102C400000BF00BF00F01F0301229A4043099B0010
:102C500003F1E023C3F8002100BF00BF00BF7047AD
:102C60002DE9F05F80460D461646002704F0F6FE7B
:102C7000074639462A46334601F00700C0F1070AE5
:102C8000BAF1040F02D94FF0040A01E0C0F1070ABB
:102C9000D14600F1040ABAF1070F02D24FF0000A40
:102CA00001E0A0F1030AD4464FF0010A0AFA09FA3A
:102CB000AAF1010A0AEA020A0AFA0CFA4FF0010B19
:102CC0000BFA0CFBABF1010B0BEA030B4AEA0B040A
:102CD0002146404604F0CAFEBDE8F09F00BF00F068
:102CE0000702064B19684FF6FF031940044B0B43CC
:102CF00043EA0221014B196000BF70470CED00E070
:102D00000000FA0538B5002400BF002000901D48DF
:102D1000006840F080501B4908600846006800F0D9
:102D20008050009000BF00BF012017490864FFF7E2
:102D30000DFA044607E0FFF709FA001BB0F57A7FA9
:102D400001D9032038BD1148406800F48030B0F547
:102D5000803FF0D101200C494864FFF7F7F90446A1
:102D600007E0FFF7F3F9001BB0F57A7F01D90320E4
:102D7000E8E70648406800F40030B0F5003FF0D1C5
:102D80000020DFE74038024000000E4200700040A3
:102D900070B504460D460CB9012070BD5848006856
:102DA00000F00F00A84209D255490D70084600688E
:102DB00000F00F00A84201D00120EEE7207800F0DB
:102DC000020002281DD1207800F00400042805D15B
:102DD0004C48006840F4E0504A490860207800F010
:102DE0000800082805D14748006840F4604045497C
:102DF00008604448006820F0F000A1680843414999
:102E00000860207800F00100A8B36068012807D1AD
:102E10003C4808380068C0F34040B8B90120BCE71E
:102E20006068022802D06068032807D13548083856
:102E30000068C0F3406048B90120AEE73148083867
:102E40000068C0F3400008B90120A6E72D480068DB
:102E500020F00300616808432A490860FFF776F90B
:102E6000064609E0FFF772F9801B41F2883188427B
:102E700002D9032091E707E02248006800F00C0027
:102E80006168B0EB810FEDD11D48006800F00F00C4
:102E9000A84209D91A490D700846006800F00F00D1
:102EA000A84201D0012078E7207800F0040004282F
:102EB00007D11448006820F4E050E1680843114944
:102EC0000860207800F00800082808D10D48006844
:102ED00020F46040216940EAC1000A49086000F01E
:102EE0003FF808490968C1F30311074A515CC8401B
:102EF0000649086006480068FFF74EFE00204CE7D0
:102F0000003C02400838024068E700086C000020DE
:102F10006400002001480068704700006C00002039
:102F200000B5FFF7F7FF04490968C1F38221034A9E
:102F3000515CC84000BD00000838024078E7000836
:102F400000B5FFF7E7FF04490968C1F34231034ABE
:102F5000515CC84000BD00000838024078E7000816
:102F60002DE9F047002400250026A146A2463F484F
:102F7000006800F00C0030B1042807D0082808D001
:102F80000C286BD138E0DFF8E8A06AE0DFF8E4A0B5
:102F900067E03648001F006800F03F043348001F18
:102FA000006800F4800078B132483049091F096890
:102FB000C1F38811A0FB0170014622460023384668
:102FC000FDF74AFA05460DE029482849091F096816
:102FD000C1F38811A0FB0171224600233846FDF79A
:102FE0003BFA05462148001F0068C0F30140401C21
:102FF0004600B5FBF6FA34E01C48001F006800F0FC
:103000003F041A48001F006800F4800078B1194896
:103010001649091F0968C1F38811A0FB0170014618
:10302000224600233846FDF717FA05460EE0104801
:103030000E49091F0968C1F38811A0FB0170014600
:10304000224600233846FDF707FA05460748001FC9
:103050000068C0F30279B5FBF9FA02E0DFF810A0CE
:1030600000BF00BF5046BDE8F087000008380240AE
:103070000024F40040787D01F8B504460CB9012025
:10308000F8BD207800F0010000286FD0FE480068ED
:1030900000F00C0004281BD0FB48006800F00C0076
:1030A000082807D1F848001F006800F48000B0F538
:1030B000800F0DD0F448006800F00C000C2813D1EC
:1030C000F148001F006800F48000B0F5800F0BD1BC
:1030D000ED4808380068C0F34040002859D06068C7
:1030E000002856D10120CBE700BF6068B0F5803FD3
:1030F00008D1E5480838006840F48030E2490839D2
:1031000008601EE06068B0F5A02F0DD1DE480838D9
:10311000006840F48020DC490839086008460068EF
:1031200040F4803008600CE0D7480838006820F48C
:103130008030D549083908600846006820F48020AE
:10314000086000BF606890B1FFF700F8054606E030
:10315000FEF7FCFF401B642801D9032090E7CA4812
:1031600008380068C0F340400028F1D011E0FEF7B5
:10317000EDFF054606E0FEF7E9FF401B642801D994
:1031800003207DE7C04808380068C0F340400028AD
:10319000F1D1207800F0020002286BD1BA48006813
:1031A00000F00C00B8B1B848006800F00C00082826
:1031B00005D1B548001F006800F4800058B1B2483E
:1031C000006800F00C000C281CD1AF48001F0068FC
:1031D00000F48000B0B9AC4808380068C0F3400083
:1031E00020B1E068012801D0012049E7A64808384D
:1031F000006820F0F800216940EAC100A2490839BE
:10320000086037E0E06800B30120A0490860FEF7DD
:103210009DFF054606E0FEF799FF401B022801D9F5
:1032200003202DE7984808380068C0F340000028C4
:10323000F1D095480838006820F0F800216940EA8C
:10324000C10091490839086014E000208F490860E6
:10325000FEF77CFF054606E0FEF778FF401B0228DC
:1032600001D903200CE7884808380068C0F3400003
:103270000028F1D1207800F0080008282CD16069DE
:10328000A8B1012082490860FEF760FF054606E00C
:10329000FEF75CFF401B022801D90320F0E67A48C4
:1032A0006C300068C0F340000028F1D014E000202A
:1032B00077490860FEF74AFF054606E0FEF746FF3D
:1032C000401B022801D90320DAE66F486C30006801
:1032D000C0F340000028F1D1207800F00400042859
:1032E00070D1002768483830006800F0805090B9ED
:1032F00000BF0020009064483830006840F08050E3
:103300006149383108600846006800F0805000903C
:1033100000BF00BF01275F48006800F48070B0B9AB
:103320005C48006840F480705A490860FEF70EFF60
:10333000054606E0FEF70AFF401B022801D90320DC
:103340009EE65448006800F480700028F2D000BF68
:10335000A068012808D14C486830006840F001009E
:103360004949683108601DE0A06805280DD146482C
:103370006830006840F0040043496831086008463E
:10338000006840F0010008600CE03F4868300068C9
:1033900020F001003C49683108600846006820F0D0
:1033A0000400086000BFA068A8B1FEF7CFFE054684
:1033B00009E0FEF7CBFE401B41F28831884202D97A
:1033C00003205DE626E0304868300068C0F3400026
:1033D0000028EED013E0FEF7B9FE054608E0FEF740
:1033E000B5FE401B41F28831884201D9032047E6EF
:1033F000254868300068C0F340000028EFD1012F55
:1034000007D121483830006820F080501E493831FB
:10341000086000BFA069002851D01B48006800F078
:103420000C00082861D0A069022849D10020174962
:103430000866FEF78BFE054606E0FEF787FE401B9A
:10344000022801D903201BE60F4808380068C0F3A2
:1034500040600028F1D1D4E907010843616A40EADD
:1034600081110122A06AC2EB500041EA00412C20E8
:10347000005D41EA00613020005D41EA00700249D0
:10348000091F0860012007E0083802400000474299
:10349000800E4742007000402F490866FEF756FE36
:1034A000054606E0FEF752FE401B022801D9032024
:1034B000E6E52A480068C0F340600028F2D048E002
:1034C000002025490866FEF741FE054606E0FEF7A6
:1034D0003DFE401B022801D90320D1E51F480068AA
:1034E000C0F340600028F2D133E0A069012800D188
:1034F000C6E51A48001D0668A069012827D006F411
:103500008001E069814222D106F03F01206A8142B8
:103510001DD147F6C0703040616AB0EB811F16D1F3
:1035200006F440310122A06AC2EB5000B1EB004F1B
:103530000DD106F070612C20005DB1EB006F06D15B
:1035400006F0E0413020005DB1EB007F01D00120AA
:1035500096E5002094E50000000047420038024054
:1035600070B504462546681EB0F1807F01D3012066
:103570000FE0681E4FF0E02148610F214FF0FF304F
:1035800004F074FA00204FF0E02188610720086100
:10359000002070BD7047704730B502460B4600BF33
:1035A00092F83C00012801D1022030BD012082F8B0
:1035B0003C0000BF022082F83D001068446810689B
:1035C000816824F070041868044310684460184D42
:1035D0001068A8421BD01068B0F1804F17D0154D6D
:1035E0001068A84213D0144D1068A8420FD0134D94
:1035F0001068A8420BD0124D1068A84207D0114D98
:103600001068A84203D0104D1068A84205D121F0DF
:1036100080015868014310688160012082F83D00F4
:1036200000BF002082F83C0000BF00BFBDE70000E3
:10363000000001400004004000080040000C004071
:1036400000040140004001400018004010B504464D
:103650000CB9012010BD94F83D0028B9002084F871
:103660003C00204600F026F8022084F83D00211D91
:10367000206803F035FD012084F8460000BF84F87F
:103680003E0001213F2001554020015541200155B8
:1036900000BF00BF012084F84200432001554420B0
:1036A00001554520015500BF012084F83D00002050
:1036B000D0E7000038B504461849206888420FD189
:1036C00000BF002000901648006840F00200144936
:1036D00008600846006800F00200009000BF1BE090
:1036E00010492068884217D100BF002000900C4884
:1036F000006840F010000A4908600846006800F0C1
:103700001000009000BF00BF002205213620FFF707
:10371000A7FA3620FFF790FA38BD000000040040F9
:103720004038024000100040014691F83D00012859
:1037300001D001207047022081F83D000868C06870
:1037400040F001000B68D8601A4B086898421BD003
:103750000868B0F1804F17D0174B0868984213D013
:10376000164B086898420FD0154B086898420BD04A
:10377000144B0868984207D0134B0868984203D04E
:10378000124B086898420CD10868806800F0070264
:10379000062A0CD00868006840F001000B68186029
:1037A00005E00868006840F001000B681860002020
:1037B000C0E7000000000140000400400008004095
:1037C000000C00400004014000400140001800408F
:1037D0002DE9F04104460D46002700BF94F83C0057
:1037E000012802D10220BDE8F081012084F83C00CC
:1037F00000BF022084F83D002068866826F0770626
:1038000026F47F46206886602868502833D00CDC78
:10381000202850D004DC00284BD0102851D149E09A
:10382000302849D040284CD139E060282DD070286C
:1038300007D0B0F5805F03D0B0F5005F41D10DE057
:1038400041E0D5E902136A68206803F0CAFC2068E9
:10385000866846F077062068866034E0D5E9021372
:103860006A68206803F0BDFC2068806840F48040EE
:103870002168886027E0EA686968206803F0A2FD93
:103880005021206803F0B8FC1DE0EA6869682068F0
:1038900003F0ABFD6021206803F0AEFC13E0EA68A2
:1038A0006968206803F08EFD4021206803F0A4FCC5
:1038B00009E000BF00BF00BF2968206803F09CFC3E
:1038C00001E0012700BF00BF012084F83D0000BFD8
:1038D000002084F83C0000BF384684E72DE9F04121
:1038E00004460D4614B90120BDE8F08194F83D006E
:1038F00028B9002084F83C00204600F053F802204C
:1039000084F83D002068806844F2070188432168FC
:103910008860211D206803F0E3FB2068D0F8088050
:10392000206886692068076A286840EA080840F22B
:1039300003308643A969A86840EA0120064340F69F
:103940000C4086434FF2F0008643E969E86840EA9C
:103950000120064328690001296A40EA0130064334
:1039600027F0220727F088076969686840EA011094
:1039700007432068C0F808802068866120680762D5
:10398000012084F8460084F83E0001213F200155C3
:10399000012084F8420043200155012084F83D00B5
:1039A0000020A1E710B586B00446142101A8FCF759
:1039B000BBFE3449206888422FD100BF0020009010
:1039C0003148006840F004002F490860084600684C
:1039D00000F00400009000BF00BF00BF0020009076
:1039E00029481038006840F0020027491039086063
:1039F0000846006800F00200009000BF00BFC02031
:103A00000190022002900020039004900220059073
:103A100001A91E48FEF7A8FA32E01D492068884235
:103A20002ED100BF002000901748006840F0080029
:103A3000154908600846006800F00800009000BFC3
:103A400000BF00BF002000900F481038006840F011
:103A500001000D49103908600846006800F00100B7
:103A6000009000BF00BF03200190022002900020C0
:103A7000039004900220059001A90648FEF774FA0D
:103A800006B010BD0008004040380240000402406B
:103A9000000C0040000002402DE9F04304460D46B2
:103AA00094F83E603F20075D94F84280432010F870
:103AB00004906DB9012E02D1B8F1010F02D001209E
:103AC000BDE8F083022084F83E0084F8420025E03F
:103AD000042D0CD1012F02D1B9F1010F01D0012029
:103AE000EEE702213F2001554320015516E0012E4B
:103AF00007D1012F05D1B8F1010F02D1B9F1010FA2
:103B000001D00120DCE7022084F83E0002213F20A2
:103B10000155022084F842004320015515B1042DBF
:103B20000CD105E001220021206803F049FB10E0E0
:103B300001220421206803F043FB0AE00122002156
:103B4000206803F03DFB01220421206803F038FBCC
:103B500000BF00BF2068006840F0010021680860D5
:103B60000020ADE7704770B504462068C56820683E
:103B7000066906F00200022819D105F002000228A9
:103B800015D1401F216808610120207720688069D5
:103B900000F0030018B12046FFF7E4FF05E02046DF
:103BA00000F0E6F8204600F09AF90020207706F0B1
:103BB0000400042819D105F00400042815D1C043DD
:103BC00021680861022020772068806900F4407035
:103BD00018B12046FFF7C6FF05E0204600F0C8F800
:103BE000204600F07CF90020207706F00800082825
:103BF00019D105F00800082815D1C04321680861D3
:103C0000042020772068C06900F0030018B1204626
:103C1000FFF7A8FF05E0204600F0AAF8204600F0D4
:103C20005EF90020207706F01000102819D105F069
:103C30001000102815D1C0432168086108202077A2
:103C40002068C06900F4407018B12046FFF78AFF71
:103C500005E0204600F08CF8204600F040F90020F6
:103C6000207706F0010048B105F0010030B16FF097
:103C7000010021680861204600F0B8F906F08000D4
:103C8000802809D105F08000802805D1C043216833
:103C900008612046FFF77EFC06F04000402809D16D
:103CA00005F04000402805D1C04321680861204646
:103CB00000F0E0F906F02000202809D105F02000EE
:103CC000202805D1C043216808612046FFF763FC26
:103CD00070BD000010B586B00446142101A8FCF7A1
:103CE00023FD1F492068884238D100BF0020009082
:103CF0001C48006840F001001A4908600846006846
:103D000000F00100009000BF00BF00BF0020009045
:103D10000846006840F0020008600846006800F0AD
:103D20000200009000BF00BFC0200190022002905E
:103D30000020039004900220059001A90A48FEF794
:103D400013F90320019002200290002003900490B8
:103D50000220059001A90548FEF706F906B010BD3E
:103D600000040040303802400000024000040240DD
:103D700070472DE9F04104460D461646002700BF66
:103D800094F83C00012802D10220BDE8F081012016
:103D900084F83C0000BF36B1042E1BD0082E31D071
:103DA0000C2E5ED145E02946206803F02FFA2068EA
:103DB000806940F00800216888612068806920F0EF
:103DC00004002168886120688069296908432168A6
:103DD000886148E02946206803F050FA206880692D
:103DE00040F40060216888612068806920F4806068
:103DF0002168886120688069296940EA012021687A
:103E0000886130E02946206803F076FA2068C069AE
:103E100040F008002168C8612068C06920F00400F3
:103E20002168C8612068C069296908432168C861A0
:103E300019E02946206803F09BFA2068C06940F425
:103E400000602168C8612068C06920F48060216832
:103E5000C8612068C069296940EA01202168C861F9
:103E600001E0012700BF00BF00BF002084F83C0034
:103E700000BF384689E710B504460CB9012010BDD3
:103E800094F83D0028B9002084F83C00204600F05A
:103E900025F8022084F83D00211D206803F020F958
:103EA000012084F8460000BF84F83E0001213F2035
:103EB0000155402001554120015500BF00BF0120A0
:103EC00084F8420043200155442001554520015506
:103ED00000BF012084F83D000020D0E77047704704
:103EE00070B504460D4615B994F83E000BE0042D5C
:103EF00002D13F20005D06E0082D02D14020005D88
:103F000001E04120005D012801D0012070BD1DB9F4
:103F1000022084F83E000EE0042D03D102213F2050
:103F2000015508E0082D03D102214020015502E08F
:103F300002214120015501222946206803F040F961
:103F400023492068884203D022492068884201D151
:103F5000012000E0002028B12068406C40F40040BF
:103F6000216848641A49206888421BD02068B0F153
:103F7000804F17D018492068884213D0174920680D
:103F800088420FD01649206888420BD0114920681A
:103F9000884207D013492068884203D0124920681C
:103FA00088420CD12068806800F00706062E0CD0ED
:103FB0002068006840F001002168086005E0206882
:103FC000006840F001002168086000209EE70000C2
:103FD00000000140000401400004004000080040CF
:103FE000000C004000400140001800402DE9F04165
:103FF000044617492068884228D116480078401C9A
:104000001449087005F00CFF054613480068406A23
:104010001249086012480068406A86B21148008858
:10402000301A07B21048006838440F49086030B2AF
:104030000C4908800D480068854204D20C4800688D
:10404000401C0B4908600948056000BFBDE8F081CD
:104050000010004003000020D003002008000020D2
:1040600088030020100000200C0000208C0100209C
:104070008801002070477047704700002DE9F84F15
:104080000446206805682068C668206847694FF0C4
:104090000009CA4605F00F09B9F1000F0AD105F071
:1040A000200038B106F0200020B1204603F06EFA5F
:1040B000BDE8F88FB9F1000F7CD007F0010018B906
:1040C00006F49070002875D005F0010030B106F4B8
:1040D000807018B1606C40F00100606405F004006D
:1040E00030B107F0010018B1606C40F0020060646C
:1040F00005F0020030B107F0010018B1606C40F02B
:104100000400606405F0080048B106F0200010B912
:1041100007F0010018B1606C40F008006064606C4A
:10412000002846D005F0200028B106F0200010B18C
:10413000204603F02BFA20684069C0F3801A606CB7
:1041400000F0080010B9BAF1000F2DD0204603F09E
:10415000C4F92068406900F04000402820D100BF29
:1041600000BF2168143151E8001F21F04000216890
:10417000143141E80002002AF3D100BFE06B50B1D6
:104180007F48E16B0865E06BFDF7E0FC88B1E06B10
:10419000016D88470DE02046FFF76EFF09E009E05A
:1041A0002046FFF769FF04E02046FFF765FF002087
:1041B00060647DE7206B012878D105F010000028AD
:1041C00074D006F010000028FAD000BF0020009044
:1041D00020680068009020684068009000BF00BF21
:1041E0002068406900F04000402870D1E06B006812
:1041F00040681FFA80F8B8F1000F58D0A08D4045F4
:1042000055DDA4F82E80E06BC069B0F5807F43D007
:1042100000BF00BF21680C3151E8001F21F48070FD
:1042200021680C3141E80002002AF3D100BF00BF31
:1042300000BF2168143151E8001F21F001002168FE
:10424000143141E80002002AF3D100BF00BF00BFD3
:104250002168143151E8001F21F040002168143119
:1042600041E80002002AF3D100BF202084F8420078
:104270000020206300BF00BF21680C3151E8001FFF
:1042800021F0100021680C3141E80002002AF3D12E
:1042900000BFE06BFDF704FC02206063A08DE28D9F
:1042A000801A81B22046FFF7E6FE0EE052E0A08DB4
:1042B00040450AD1E06BC069B0F5807F05D102208E
:1042C0006063A18D2046FFF7D6FEF1E6FFE7A08DE3
:1042D000E18D401A1FFA80F8E08DD0B3B8F1000FDD
:1042E00037D000BF00BF21680C3151E8001F21F416
:1042F000907021680C3141E80002002AF3D100BF20
:1043000000BF00BF2168143151E8001F21F00100F7
:104310002168143141E80002002AF3D100BF2020B7
:1043200084F842000020206300BF00BF21680C31E8
:1043300051E8001F21F0100021680C3141E8000213
:10434000002AF3D100BF0220606341462046FFF7F8
:1043500092FEADE605F0800030B106F0800018B1A5
:10436000204603F0C7FAA3E605F0400030B106F09E
:10437000400018B1204603F0E6F899E600BF97E642
:104380001374000810B504460CB9012010BDA069D3
:1043900000B100E000BF94F8410028B9002084F883
:1043A0004000204600F02AF8242084F841002068CC
:1043B000C06820F400502168C860204603F064F90A
:1043C0002068006920F490402168086120684069F5
:1043D00020F02A00216848612068C06840F400503D
:1043E0002168C86000206064202084F8410084F8BF
:1043F00042000020606300BFC8E7000010B586B02F
:104400000446142101A8FCF78FF94F49206888421F
:104410005AD100BF002000904C48006840F4802032
:104420004A4908600846006800F48020009000BFF8
:1044300000BF00BF0020009044481038006840F0E2
:1044400004004249103908600846006800F0040082
:10445000009000BF00BF4FF4406001900220029026
:1044600000200390032004900720059001A93848FC
:10447000FDF77AFD3748384908604FF00060486022
:104480004021354881600021C1604FF480610161A5
:10449000002141618161C1614FF40031016200215D
:1044A0004162FDF78BFC08B1FDF728F900BF2A48EF
:1044B000A063846300BF002205212720FEF7D0FB04
:1044C0002720FEF7B9FB3DE024492068884239D116
:1044D00000BF002000901D48001D006840F0200033
:1044E0001A49091D08600846006800F02000009085
:1044F00000BF00BF00BF00200090144810380068C3
:1045000040F004001149103908600846006800F0C6
:104510000400009000BF00BFC02001900220029064
:1045200000200390032004900820059001A908486A
:10453000FDF71AFD002205214720FEF791FB4720D9
:10454000FEF77AFB06B010BD00480040403802403C
:104550000008024058600240F004002000140140AE
:1045600070B504460D46164694F8420020280BD13B
:1045700005B10EB9012070BD0020206332462946E6
:10458000204603F097F9F6E70220F4E710B5044659
:104590000E4920680968884208D10D48007802F069
:1045A00055FC01220A490948FFF7DAFF094920684A
:1045B0000968884208D108480078FCF705FC012208
:1045C00005490448FFF7CCFF10BD0000A8040020F7
:1045D0000000002060040020010000202DE9F84FB9
:1045E00004460E46174699464FF0000A94F84100DB
:1045F000202850D106B117B90120BDE8F88F00205E
:104600006064212084F84100FDF7A0FD8246A78464
:10461000E784A068B0F5805F04D1206910B9002557
:10462000B04602E035464FF000081EE05346002237
:1046300080212046CDF8009003F08CF920B1202095
:1046400084F841000320D8E745B9B8F80000C0F36A
:1046500008002168486008F1020803E02878216812
:1046600048606D1CE08C401EE084E08C0028DDD1A9
:104670005346002240212046CDF8009003F06AF90D
:1046800020B1202084F841000320B6E7202084F8E0
:1046900041000020B1E70220AFE70000F7B5044673
:1046A000154694F8410020283ED1019800B10DB97B
:1046B0000120FEBD01982062A584E584002060648D
:1046C000212084F841001948A16BC8631848A16BE8
:1046D00008641848A16BC8640020A16B086501AE8E
:1046E00023681A1D31682B46A06BFDF7DDFB30B146
:1046F00010206064202084F841000120D9E76FF089
:1047000040002168086000BF00BF2168143151E8F3
:10471000001F41F080002168143141E80002002AA6
:10472000F3D100BF0020C4E70220C2E7757400087F
:10473000CD74000825740008044A0168126891428B
:1047400002D10121024A117070470000600400206C
:1047500002000020704700BFFEE7000010B50248CD
:10476000FDF7FCFC10BD0000EC02002010B5024873
:10477000FDF75EFD10BD0000EC020020C16AB1F53E
:104780002A0F02D10121C16205E0C16AB1F12A4FAD
:1047900001D10821C1627047F8B50546002000909C
:1047A000AC6B94F83D60394800681921B0FBF1F01A
:1047B0004FF47A71B0FBF1F0C0EBC00000EB800069
:1047C000009000BF009820B9206C40F020002064C9
:1047D00009E00098401E00902068006800F4007016
:1047E000B0F5007FEED000BF606B10B10020616BB0
:1047F000C863A06B10B10020A16BC863206800687B
:1048000020F480602168086000206085606B10B132
:104810000020616B0865A06B10B10020A16B0865DA
:104820002068006820F001002168086094F83D00CD
:1048300060280AD1202084F83D00002084F83E0042
:1048400020642046FDF788FC1EE006F0280028289A
:1048500011D12068006840F00100216808602068DC
:10486000006840F4806021680860002020632820F0
:1048700084F83D0005E0202084F83D00002084F805
:104880003E002046FDF7C2FDF8BD00006C00002090
:1048900001684969C1F3C01111B1002102681161B9
:1048A000704700002DE9F041044694F83D6094F80B
:1048B0003E70102F01D0402F07D1222E05D1206845
:1048C000006820F400602168086006F028002828AD
:1048D00005D100202063282084F83D0010E02068E6
:1048E000406800F40060B0F5006F07D0602E05D07E
:1048F000202084F83D00002084F83E000020206342
:104900002068406800F40060B0F5006F40D1206876
:10491000406820F4006021684860606B90F83500C2
:10492000012814D04848616B0865606BFDF70EF9EB
:1049300000285BD02068006820F001002168086032
:10494000202084F83D00606B016D88474EE03E48B2
:10495000A16B0865A06BFDF7F9F8002846D0206828
:104960004069C0F3801030B120680069616A087046
:10497000606A401C60622068006820F001002168C5
:104980000860202084F83D00A06B016D88472DE071
:1049900094F83D0060281AD1202084F83D000020C2
:1049A000206420684069C0F3801030B1206800693D
:1049B000616A0870606A401C60622068006820F0CC
:1049C0000100216808602046FDF7C6FB0EE0206864
:1049D0004069C0F3801030B120680069616A0870D6
:1049E000606A401C60622046FDF710FD256C05F0F2
:1049F000010058B905F00200022807D005F00400B4
:104A0000042803D005F00800082805D12068406874
:104A100020F4E0602168486094F83D60206C00F06C
:104A2000040004280ED1282E0CD10848E062002092
:104A30002063202084F83D00002084F83E002046BA
:104A4000FDF7D8FDBDE8F081994700080000FFFFA1
:104A5000014608684069C0F38020B0B16FF48060FF
:104A60000A68506100200863202081F83D00002082
:104A700081F83E00086C40F00400086400BF00208C
:104A800081F83C0000BF012070470020FCE770B5B2
:104A90000446E56A608D042810D12068406820F43F
:104AA00080602168486020680069616A0870606AF7
:104AB000401C6062608D401E60857FE0608D032831
:104AC0001AD12068406820F4806021684860042D75
:104AD00007D0022D05D02068006820F4806021688E
:104AE000086020680069616A0870606A401C606242
:104AF000608D401E608561E0608D022854D1012DDB
:104B000001D0102D06D12068006820F48060216853
:104B1000086010E0042D01D0022D06D12068006845
:104B200040F480602168086005E02068006840F477
:104B300000702168086020680069616A0870606A16
:104B4000401C6062608D401E608520680069616A5B
:104B50000870606A401C6062608D401E608520683D
:104B6000406820F4407021684860202084F83D00AF
:104B700094F83E00402807D1002084F83E002063CE
:104B80002046FDF73BFD19E0002084F83E00082D8B
:104B900001D0202D02D10020206301E012202063EB
:104BA0002046FDF728FD09E020680069616A087069
:104BB000606A401C6062608D401E608570BD70B58B
:104BC000044694F83D0022287AD1E66A658D032DCB
:104BD00013D920680069616A0870606A401C6062CD
:104BE000608D401E6085608D032868D12068406814
:104BF00020F480602168486061E0E06A022858D0B3
:104C0000012D01D0002D54D1204600F037FFA0BB6C
:104C10002068006820F4806021680860206840688F
:104C200020F4E0602168486020680069616A0870CB
:104C3000606A401C6062608D401E6085202084F8A0
:104C40003D0094F83E00402807D1002084F83E0043
:104C500020632046FDF7D2FC31E0002084F83E00BE
:104C6000082E01D0202E02D10020206301E0122066
:104C700020632046FDF7BFFC21E0FFE72068406885
:104C800020F4E0602168486020680069616A08706B
:104C9000606A401C6062608D401E6085202084F840
:104CA0003D00002084F83E002046FDF7AFFB06E003
:104CB00006E02068406820F480602168486000BFFA
:104CC00070BD70B50446E56A94F83D00212847D1CF
:104CD000608D50B1606A007821680861606A401C8C
:104CE0006062608D401E60853AE0082D16D0202D50
:104CF00014D015F5803F11D02068406820F4E060A2
:104D00002168486011202063002084F83E002020A4
:104D100084F83D002046FDF76FFC21E020684068E4
:104D200020F4E060216848602068006840F400706A
:104D30002168086000202063202084F83D0094F85A
:104D40003E00402806D1002084F83E002046FDF7B2
:104D500061FC05E0002084F83E002046FDF74CFC95
:104D600070BD2DE9F041044694F83D5094F83E7032
:104D7000E66A208DB0BB212D3CD1082E16D0202E06
:104D800014D016F5803F11D02068406820F4E06010
:104D90002168486011202063002084F83E00202014
:104DA00084F83D002046FDF727FC44E02068406879
:104DB00020F4E060216848602068006840F40070DA
:104DC0002168086000202063202084F83D0094F8CA
:104DD0003E00402807D1002084F83E002046FDF721
:104DE00019FC28E006E0002084F83E002046FDF78C
:104DF00003FC20E0212D03D0402F1CD1222D1AD1FD
:104E0000608D30B92068406820F480602168486077
:104E100011E094F83E00402803D1204600F0A5F9A7
:104E200009E0606A007821680861606A401C60627D
:104E3000608D401E6085BDE8F081416CC9B202689A
:104E40001161416B11B1416BC96B21B9816B41B1EA
:104E5000816BC96B29B10168496841F4006102683E
:104E60005160704738B590F83E20C16A036B90F8E6
:104E70003D40222C73D1046D64B9402A0AD100BF91
:104E8000002400940468646900940468A469009490
:104E900000BF1AE1046DC4B90469B4F5404F14D1E0
:104EA00000BF002400940468646900940468A46945
:104EB000009400BF00BF0468246844F4807405684F
:104EC0002C60046D641C0465FFE0448D8CB900BF48
:104ED000002400940468646900940468A469009440
:104EE00000BF00BF0468246844F4007405682C60A7
:104EF000DDE0448D012C72D111F5803F30D1046882
:104F0000246824F4806405682C600468646804F4F0
:104F10000064B4F5006F10D10468246824F4806440
:104F200005682C6000BF0024009404686469009444
:104F30000468A469009400BFB9E000BF0024009495
:104F40000468646900940468A469009400BF00BF09
:104F50000468246844F4007405682C60A7E0A9E0A4
:104F6000082923D0202921D0122B01D101291DD1BC
:104F700004290AD0022908D0102906D00468246820
:104F800024F4806405682C6005E00468246844F417
:104F9000806405682C6000BF002400940468646984
:104FA00000940468A469009400BF80E00468246849
:104FB00024F4806405682C6000BF00240094046819
:104FC000646900940468A469009400BF00BF046889
:104FD000246844F4007405682C6068E0FFE7448DA1
:104FE000022C3BD1042910D002290ED010290CD05C
:104FF0000468246824F4806405682C6004682468CC
:1050000044F4006405682C6005E00468246844F4F6
:10501000806405682C600468646804F40064B4F576
:10502000006F10D111F5803F07D0012905D0082964
:1050300003D0102901D0202905D10468646844F404
:10504000805405686C6000BF0024009404686469A3
:1050500000940468A469009400BF28E004682468F0
:1050600044F4806405682C600468646804F4006497
:10507000B4F5006F10D111F5803F07D0012905D09C
:10508000082903D0102901D0202905D104686468BB
:1050900044F4805405686C6000BF002400940468E8
:1050A000646900940468A469009400BF00BF0024F0
:1050B00004650AE000BF0024009404686469009459
:1050C0000468A469009400BF00BF38BD90F83E108A
:1050D00040290ED1016D29B9416C01F0FE01026831
:1050E000116141E0416CC9B241F0010102681161F6
:1050F0003AE00169B1F5804F20D190F83D102129A7
:1051000005D1416C01F0FE010268116105E0416CBE
:10511000C9B241F0010102681161416B11B1416BEB
:10512000C96B21B9816BF9B1816BC96BE1B10168C0
:10513000496841F400610268516015E0016D41B9B0
:10514000416C01F44071F02242EAE1110268116100
:105150000AE0016D012907D1416C01F44071F1228F
:1051600042EAE11102681161704770B5044694F893
:105170003D50206D98B9E06C012807D1A06CC0B2F9
:1051800021680861206D801C206550E0A06CC0F390
:10519000072021680861206D401C206547E0206DD4
:1051A000012807D1A06CC0B221680861206D401CA5
:1051B00020653CE0206D022836D1222D09D12068DF
:1051C000006840F4807021680860206D401C2065F4
:1051D0002DE0608D60B1212D0AD1606A00782168D0
:1051E0000861606A401C6062608D401E60851EE040
:1051F000608DE0B9212D1AD12068406820F4E0606C
:10520000216848602068006840F4007021680860E8
:1052100000202063202084F83D00002084F83E0018
:105220002046FDF7F7F902E02046FFF731FB70BD9D
:105230002DE9F84304460F4615469946DDE90886F0
:105240002068006840F48060216808602068006879
:1052500040F4807021680860434600224FF001113D
:105260002046009600F0E9FA60B12068006800F47A
:105270008070B0F5807F02D14FF40070206403206D
:10528000BDE8F88307F0FE00216808613346424616
:105290003E49204600F030FB08B10120F0E700BF96
:1052A000002000902068406900902068806900908C
:1052B00000BF00BF32464146204600F007FC50B117
:1052C000206C042805D12068006840F40070216833
:1052D00008600120D4E7B9F1010F03D1E8B22168D9
:1052E000086117E0C5F3072021680861324641468E
:1052F000204600F0EBFB50B1206C042805D120685B
:10530000006840F40070216808600120B8E7E8B246
:105310002168086132464146204600F0D7FB50B173
:10532000206C042805D12068006840F400702168D2
:1053300008600120A4E72068006840F480702168BC
:105340000860434600224FF001112046009600F00D
:1053500074FA58B12068006800F48070B0F5807F5E
:1053600002D14FF400702064032089E7F8B240F0C6
:10537000010021680861334642460449204600F096
:10538000BBFA08B101207BE7002079E702000100A9
:105390002DE9F8430446884615469946DDE9086735
:1053A0002068006840F4807021680860334600225D
:1053B0004FF001112046009700F03FFA60B12068DD
:1053C000006800F48070B0F5807F02D14FF4007067
:1053D00020640320BDE8F88308F0FE00216808611E
:1053E0003B4632462149204600F086FA08B10120AA
:1053F000F0E700BF0020009020684069009020681E
:105400008069009000BF00BF3A463146204600F058
:105410005DFB50B1206C042805D12068006840F481
:105420000070216808600120D4E7B9F1010F03D1B1
:10543000E8B22168086117E0C5F307202168086118
:105440003A463146204600F041FB50B1206C04281A
:1054500005D12068006840F40070216808600120D0
:10546000B8E7E8B2216808610020B3E70200010054
:10547000418D49B101680969426A1170416A491C4C
:105480004162418D491E4185704770B5044694F8CC
:105490003D50608DD8B120680069616A0870606A0B
:1054A000401C6062608D401E6085608D78B92A2D39
:1054B0000DD12068406820F4806021684860222077
:1054C0002063282084F83D002046FDF739FB70BD9D
:1054D000418D49B1416A097802681161416A491CEC
:1054E0004162418D491E4185704770B5044694F86C
:1054F0003D50608DD8B1606A007821680861606AAB
:10550000401C6062608D401E6085608D78B9292DD9
:105510000DD12068406820F4806021684860212017
:105520002063282084F83D002046FDF70AFB70BD6B
:10553000F8B504460D46002794F83D0000F0280019
:1055400028281CD12068406820F4806021684860C9
:10555000C5F3800000B90127C5F3C01010B9A089B8
:1055600086B201E0208B86B200BF002084F83C00A8
:1055700000BF324639462046FCF7EFFD0FE000BF82
:1055800000200090206840690090206880690090A9
:1055900000BF00BF00BF002084F83C0000BFF8BD82
:1055A00070B5044694F83D50E66A082E01D0202ECE
:1055B0001FD1282D1DD12348E0622068406820F4C7
:1055C000E060216848606FF480602168486120686D
:1055D000006820F48060216808600020206320209B
:1055E00084F83D00002084F83E002046FDF702F8D4
:1055F00026E0212D20D11348E062212020632020C5
:1056000084F83D00002084F83E002068406820F4C3
:10561000E060216848606FF480602168486120681C
:10562000006820F48060216808602046FFF730F9A8
:105630002046FDF786FA03E06FF480602168486138
:1056400070BD00000000FFFF38B5044694F83D50DF
:105650002068406820F4E0602168486000BF0020B6
:1056600000902068406900902068006840F00100C8
:105670002168086000BF00BF2068006820F48060D7
:10568000216808602068406800F40060B0F5006F91
:1056900042D1222D01D02A2D1FD1A06B0068406875
:1056A0006085608D18B1206C40F004002064206893
:1056B000406820F4006021684860A06BFCF75AFA4B
:1056C000012829D04148A16B0865A06BFCF73EFA80
:1056D00010B3A06B016D88471EE0606B00684068E6
:1056E0006085608D18B1206C40F004002064206853
:1056F000406820F4006021684860606BFCF73AFA6B
:10570000012809D03148616B0865606BFCF71EFA0F
:1057100010B1606B016D8847608D18B320684069D7
:10572000C0F3800048B120680069616A0870606A4F
:10573000401C6062608D401E608520684069C0F337
:10574000801048B120680069616A0870606A401C76
:105750006062608D401E6085608D18B1206C40F0E5
:1057600004002064206C18B12046FFF79BF82BE062
:105770002A2D07D100202063282084F83D002046F0
:10578000FDF7DEF994F83D0028280DD11048E062BD
:1057900000202063202084F83D00002084F83E0093
:1057A0002046FCF727FF0FE0206B222801D0222D96
:1057B0000AD100202063202084F83D00002084F8D6
:1057C0003E002046FDF7BCF938BD000099470008AF
:1057D0000000FFFF70B504460D46164625E0204642
:1057E000FFF736F908B1012070BD681CE8B1FCF77D
:1057F000ADFC801BA84200D8BDB920684069C0F349
:10580000800090B900202063202084F83D00002013
:1058100084F83E00206C40F02000206400BF00208F
:1058200084F83C0000BF0120DEE720684069C0F337
:1058300080000028D3D00020D6E72DE9F0410446AF
:105840000D4617461E46DDF8188038E0701CA8B3D8
:10585000FCF77CFCA0EB0800B04200D876BBC5F397
:10586000074001280AD120684069A9B20840A9B2BE
:10587000884201D101200BE0002009E02068806906
:10588000A9B20840A9B2884201D1012000E000205D
:10589000B84214D100202063202084F83D0000206D
:1058A00084F83E00206C40F02000206400BF0020FF
:1058B00084F83C0000BF0120BDE8F081FFE7C5F39C
:1058C000074001280AD120684069A9B20840A9B25E
:1058D000884201D101200BE0002009E020688069A6
:1058E000A9B20840A9B2884201D1012000E00020FD
:1058F000B842ABD00020DFE72DE9F04104460D4669
:1059000016461F4658E020684069C0F38020E8B181
:105910002068006840F40070216808606FF48060BF
:105920002168486100202063202084F83D00002089
:1059300084F83E00206C40F00400206400BF00208A
:1059400084F83C0000BF0120BDE8F081701C90B3DA
:10595000FCF7FCFBC01BB04200D866BBC5F3074098
:1059600001280AD120684069A9B20840A9B288423A
:1059700001D101200BE0002009E020688069A9B274
:105980000840A9B2884201D1012000E0002090B96E
:1059900000202063202084F83D00002084F83E0091
:1059A000206C40F02000206400BF002084F83C0000
:1059B00000BF0120C8E7FFE7C5F3074001280AD16F
:1059C00020684069A9B20840A9B2884201D10120EB
:1059D0000BE0002009E020688069A9B20840A9B264
:1059E000884201D1012000E0002000288BD0002057
:1059F000AAE770B504460D46164637E020684069B0
:105A0000C0F30010A0B16FF01000216848610020C1
:105A10002063202084F83D00002084F83E00206CA4
:105A2000206400BF002084F83C0000BF012070BD4E
:105A3000FCF78CFB801BA84200D8BDB920684069E8
:105A4000C0F3801090B900202063202084F83D002E
:105A5000002084F83E00206C40F02000206400BF4D
:105A6000002084F83C0000BF0120E0E72068406986
:105A7000C0F380100028C1D00020D8E708B5014647
:105A800000200090104800681922B0FBF2F04FF49B
:105A90007A72B0FBF2F000EB8000009000BF00983B
:105AA000401E0090009828B9086C40F0200008645F
:105AB000012008BD0868006800F40070B0F5007FA0
:105AC000EDD00020F5E700006C00002070B5044622
:105AD0000D46164625E02046FEF7BAFF08B1012024
